:100000000C9475010C949D010C949D010C949D0120
:100010000C949D010C949D010C949D010C949D01E8
:100020000C949D010C949D010C949D010C949D01D8
:100030000C949D010C949D010C949D010C949D01C8
:100040000C94C9060C949D010C9497060C947106AF
:100050000C949D010C9413070C949D010C949D012C
:100060000C949D010C949D018090A0B0BFCDDAE569
:10007000EEF5FBFEFFFEFBF5EEE5DACDBFB0A0909E
:10008000806F5F4F4032251A110A04010001040AF3
:10009000111A2532404F5F6F0000891112239B32E5
:1000A0002446AD573665BF74488CC19D5AAFD3BE48
:1000B0006CCAE5DB7EE9F7F88110080193331A2258
:1000C000A5562C47B7753E64C99C408DDBBF52AE28
:1000D000EDDA64CBFFF976E802218B301002991338
:1000E0002667AF763444BD554AADC3BC588ED19F08
:1000F0006EEBE7FA7CC8F5D983310A209112180318
:10010000A7772E66B5543C45CBBD42ACD99E508FE7
:10011000EFFB66EAFDD874C904428D5316619F70E7
:100120002004A9153227BB364CCEC5DF5EEDD7FCC7
:100130006888E1997AABF3BA85520C4397711E60D7
:10014000A1142805B3373A26CDDE44CFDFFD56ECA7
:10015000E9986089FBBB72AA06638F7214409D51B7
:100160002225AB343006B9174EEFC7FE5CCCD5DD87
:100170006AA9E3B8788AF19B87730E6295501C4197
:10018000A3352A24B1163807CFFF46EEDDDC54CD67
:10019000EBB962A8F99A708B088481951AA793B677
:1001A0002CC2A5D33EE1B7F04008C919522BDB3A67
:1001B000644EED5F766DFF7C899400859BB712A637
:1001C000ADD224C3BFF136E0C1184809D33B5A2A47
:1001D000E55E6C4FF77D7E6C0AA583B41886919717
:1001E0002EE3A7F23CC0B5D14229CB38500AD91B27
:1001F000666FEF7E744CFD5D8BB502A499961087F7
:10020000AFF326E2BDD034C1C3394A28D11A580B06
:10021000E77F6E6EF55C7C4D0CC685D71EE597F4C6
:100220002880A1913AA3B3B2444ACD5B5669DF78E6
:10023000600CE91D722FFB3E8DD604C79FF516E4B6
:10024000A9902081BBB332A2C55A4C4BD7795E68C6
:10025000E11C680DF33F7A2E0EE787F61CC495D596
:100260002AA1A3B03882B193466BCF7A5448DD59A6
:10027000622DEB3C700EF91F8FF706E69DD414C576
:10028000ABB122A0B9923083C77B4E6AD5585C4986
:10029000E33D6A2CF11E780F000000080002010007
:1002A0000003040700000000000000000000000040
:1002B000250028002B0000000000240027002A0051
:1002C00004040404040404040202020202020303FC
:1002D0000303030301020408102040800102040804
:1002E0001020010204081020740811241FBECFEF53
:1002F000D8E0DEBFCDBF11E0A0E0B1E0E0E9FEE173
:1003000002C005900D92A432B107D9F721E0A4E212
:10031000B1E001C01D92AD3DB207E1F711E0C5E7C4
:10032000D1E004C02197FE010E941B0EC437D10703
:10033000C9F70E945A0A0C94460F0C94000090E0F2
:10034000FC01EC52FD4F249180549D4FFC0184919F
:10035000882399F090E0880F991FFC01EA54FD4F23
:10036000A591B491FC01E455FD4F859194918FB70F
:10037000F894EC91E22BEC938FBF0895AF92BF926B
:10038000CF92DF92EF92FF920F931F93CF93DF9361
:100390006C017B018B01040F151FEB015E01AE1890
:1003A000BF08C017D10759F06991D601ED91FC91B2
:1003B0000190F081E02DC6010995892B79F7C501DF
:1003C000DF91CF911F910F91FF90EF90DF90CF9031
:1003D000BF90AF900895FC01538D448D252F30E0E0
:1003E000842F90E0821B930B541710F0CF96089542
:1003F00001970895FC01918D828D981761F0A28D6F
:10040000AE0FBF2FB11D5D968C91928D9F5F9F7334
:10041000928F90E008958FEF9FEF0895FC01918DEA
:10042000828D981731F0828DE80FF11D858D90E057
:1004300008958FEF9FEF0895FC01918D228D892FF4
:1004400090E0805C9F4F821B91098F7399270895DC
:100450008EE291E00E941C0221E0892B09F420E049
:10046000822F089580E090E0892B29F00E942802D5
:1004700081110C9400000895FC01A48DA80FB92FE0
:10048000B11DA35ABF4F2C91848D90E001968F73BC
:100490009927848FA689B7892C93A089B1898C91DB
:1004A000837080648C93938D848D981306C002882A
:1004B000F389E02D80818F7D80830895EF92FF92F4
:1004C0000F931F93CF93DF93EC0181E0888F9B8D77
:1004D0008C8D98131AC0E889F989808185FF15C031
:1004E0009FB7F894EE89FF896083E889F989808154
:1004F0008370806480839FBF81E090E0DF91CF9123
:100500001F910F91FF90EF900895F62E0B8D10E044
:100510000F5F1F4F0F731127E02E8C8D8E110CC0B3
:100520000FB607FCFACFE889F989808185FFF5CFFE
:10053000CE010E943C02F1CFEB8DEC0FFD2FF11D9F
:10054000E35AFF4FF0829FB7F8940B8FEA89FB893B
:1005500080818062CFCF682F8EE291E00C945E02A2
:10056000CF93DF93EC01888D8823B9F0AA89BB89EA
:10057000E889F9898C9185FD03C0808186FD0DC0D5
:100580000FB607FCF7CF8C9185FFF2CF808185FFF6
:10059000EDCFCE010E943C02E9CFDF91CF910895CB
:1005A00090E0FC01E856FD4F2491FC01EC52FD4F18
:1005B0003491FC01E054FD4FE491EE23C9F0222375
:1005C00039F0233001F1A8F4213019F1223029F15A
:1005D000F0E0EE0FFF1FE455FD4FA591B4918FB7EA
:1005E000F894EC91611126C030953E233C938FBF67
:1005F00008952730A9F02830C9F0243049F78091B8
:1006000080008F7D03C0809180008F778093800071
:10061000DFCF84B58F7784BDDBCF84B58F7DFBCFF3
:100620008091B0008F778093B000D2CF8091B000DE
:100630008F7DF9CF3E2BDACFCF93DF93EC0161E0D2
:1006400088890E94D00261E08E85DF91CF910C9461
:10065000D002FC01218532852F5F3F4F243F81E08E
:1006600038071CF432872187089512861186089571
:10067000CF93DF93EC01EA81FB818D819E81E80FAE
:10068000F91F8C858083EA81FB818F819885E80F33
:10069000F91F8B8580831C861B8689859A859E839E
:1006A0008D83CE010E94290389859A8598878F833F
:1006B000CE010E942903EA81FB818D819E81E80F92
:1006C000F91F1082EA81FB818F819885E80FF91F5D
:1006D0001082E881F9818FEF9FEF938382832681D7
:1006E0003781358324839783868315861486DF912B
:1006F000CF910895CF93DF93EC018F8198859A87EE
:100700008987CE010E9429031C861B86E881F98116
:100710008FEF9FEF938382832681378135832483F4
:100720009783868315861486DF91CF910895CF93A2
:10073000DF93FC0183899489181619060CF451C0C3
:1007400082819381A585B685A80FB91F2785308939
:10075000820F931FEC0128818C9190E0982F8827BD
:10076000820F911D948B838B18161906D4F51C9259
:10077000A281B38187859089A80FB91F1C924389F4
:100780005489CA01029625853685280F391F368778
:10079000258767857089860F971F908B8787243FF1
:1007A000D1E03D0724F0245F314036872587843F20
:1007B00021E0920724F0845F9140908B87878189A4
:1007C00092899C012E5F3F4F243F61E036079CF4E5
:1007D000328B218B8481811104C042505109548B8A
:1007E000438B81E023893489121613060CF080E0D4
:1007F000DF91CF910895825F9140928B818BEACFF8
:10080000EF92FF920F931F93CF93DF93EC017B0145
:100810008A01FA0110820E949703882371F1EA810C
:10082000FB8129893A89E20FF31F9081F7019083B8
:1008300029893A89A9014F5F5F4F443FF1E05F0783
:100840001CF55A8B498B2B893C89215031093C8BF3
:100850002B8B121613068CF091E0F80190839C818B
:1008600091110BC029893A89A9014E5F5F4F443F1E
:10087000F1E05F0774F45A8B498BDF91CF911F91A0
:100880000F91FF90EF900895235F31403A8B298BB1
:10089000DACF225F31403A8B298BEFCF1F93CF9372
:1008A000DF93EC0189859A8529893A89281B390BC0
:1008B0001216130614F02C503E4F253031050CF45F
:1008C00051C0162FEA81FB81E80FF91F6083CE012A
:1008D0000E9429038B859C8501969C878B87A88124
:1008E000B9811296EC91129713964C911397E127C8
:1008F000F0E0EE0FFF1FE856FF4F25913491842F53
:1009000090E08227932713969C938E9312971B96C1
:100910002C911B971A962C931A971B961C931B9736
:1009200016962D913C91179715963C932E931497FC
:1009300018962D913C91199717963C932E931697E4
:1009400019969C938E9318971C968D919C911D9748
:1009500001961D969C938E931C9781E0DF91CF9119
:100960001F91089580E0FACF1F93CF93DF93DC01AE
:1009700051962D913C91529719964D915C91241B63
:10098000350B1216130614F02C503E4F253031054E
:1009900044F1DC01ED91FC91119714962C912223E6
:1009A00089F0EC016281138160950E944E04612FF1
:1009B0006095CE010E944E04CE01DF91CF911F9130
:1009C0000C943803248535852330310554F0348167
:1009D000258130954285341304C020953385231733
:1009E00061F3DF91CF911F910C947A03FC0183890D
:1009F000882381F081E0818B9EE7948B858B118E1B
:100A0000108E828D938D958F848F168E178E11A2E6
:100A100010A2138A0895CF93DF93EC016F57770BE1
:100A20008B819C81161617060CF06FC0860F971FDE
:100A30009C838B832B853C853A8729874BA15CA1BE
:100A4000DA01AA0FBB1FAC0FBD1F51968D919C916F
:100A5000689FD001699FB00D789FB00D1124B595A6
:100A6000A795B595A795BC87AB878F8598899E87F5
:100A70008D872A0F3B1F95958795280F391F388B37
:100A80002F8789A19AA1DC01AA0FBB1FAC0FBD1F44
:100A900052967C936E9351974F5F5F4F483051054C
:100AA000BCF55CA34BA3019688309105A4F59AA3ED
:100AB00089A38DA1880F91E0121613060CF090E027
:100AC000892B8DA3482F50E09A01359527953595B0
:100AD000279528273527237033272330310549F4FC
:100AE0002EA13FA120323105DCF52F5F3F4F3FA300
:100AF0002EA32EA13FA1285F3F4F203431059CF546
:100B00003FA32EA3DF91CF910895861B970B90CF23
:100B10001CA21BA2C8CF1AA219A28B819C81843669
:100B200091058CF01E821D828881882379F08D8149
:100B30009E8101969E838D83893C91050CF01882DD
:100B40001C821B82B6CF18861F82EECF8F819885BC
:100B5000019698878F8303979CF381E08883F0CF79
:100B600021503109C4CF2F7333273FA32EA38770A1
:100B70009BEF980F21E0933018F0833009F020E0CC
:100B800039A538A729A78BA59CA58130910509F423
:100B900041C08230910509F449C0892B09F044C055
:100BA0004AA550E0559547954AA78DA59EA5019663
:100BB0008930910564F59EA78DA790E8231390E0F6
:100BC000942B9AA781E09E3709F080E09C579230E1
:100BD00020F421E030E03CA72BA72BA53CA5213039
:100BE000310509F48FCF2FA538A92130310509F43B
:100BF0004DC0BCF5232B09F085CF882309F482CFA3
:100C00001EA61DA681E090E098AB8FA77BCF81E068
:100C100090E0D1CF8AA590E8231390E0892B8AA792
:100C200082E090E09CA78BA780E0D7CF8AA590E0D8
:100C3000959587958AA74DA55EA54F5F5F4F493073
:100C4000510554F45EA74DA7231309C020E8822B59
:100C50008AA71CA61BA6E8CF41E050E0F3CF20E016
:100C6000F6CF2230310509F12330310509F04ACFA2
:100C7000882389F11EA61DA681E090E098AB8FA77E
:100C800089819A81DF91CF910C94B4042DA53EA562
:100C9000283031050CF436CF8823D1F089819A8130
:100CA0000E947A0382E090E0AFCF2DA53EA52830C8
:100CB00031050CF427CF811125CF83E090E098AB6C
:100CC0008FA76AA589819A810E944E0481111ACF4B
:100CD00018AA1FA617CF8DA59EA508970CF412CFB2
:100CE000F0CF1F920F920FB60F9211242F933F93C4
:100CF0004F935F936F937F938F939F93AF93BF9324
:100D0000EF93FF938EE291E00E943C02FF91EF91FE
:100D1000BF91AF919F918F917F916F915F914F9113
:100D20003F912F910F900FBE0F901F9018951F921B
:100D30000F920FB60F9211242F938F939F93EF93DF
:100D4000FF93E0913E01F0913F018081E0914401E9
:100D5000F091450182FD1BC09081809147018F5F1A
:100D60008F7320914801821741F0E0914701F0E034
:100D7000E25DFE4F958F80934701FF91EF919F9128
:100D80008F912F910F900FBE0F901F90189580811B
:100D9000F4CF1F920F920FB60F9211242F933F930F
:100DA0008F939F93AF93BF9380912A0190912B01D2
:100DB000A0912C01B0912D013091290123E0230F46
:100DC0002D3758F50196A11DB11D2093290180935F
:100DD0002A0190932B01A0932C01B0932D018091B7
:100DE000250190912601A0912701B091280101963B
:100DF000A11DB11D8093250190932601A093270189
:100E0000B0932801BF91AF919F918F913F912F9106
:100E10000F900FBE0F901F90189526E8230F029693
:100E2000A11DB11DD2CF1F920F920FB60F921124A8
:100E3000FF920F931F932F933F934F935F936F9363
:100E40007F938F939F93AF93BF93EF93FF93CF9332
:100E5000DF931F92CDB7DEB70091CB011091CC018B
:100E60008091CD019091CE01D8012C916091240107
:100E7000211102C0609179000E940B05F80183895D
:100E800081112FC18081882309F46CC00584F68507
:100E9000E02DE859FF4FE4918BB1E07F8F70E82B94
:100EA000EBB9D8011D968D919C911E979C012A5FEC
:100EB0003F4F203331050CF050C01E963C932E93CB
:100EC0001D97D8011B96ED91FC91E859FF4FF490C6
:100ED000F801838594852189222309F451C006965F
:100EE00094878387F80183859485803391051CF06E
:100EF000C09794878387D80152968C915297882304
:100F000009F442C01B968D919C911C970B9764F439
:100F10001C961C921E921B9781E053968C935397BC
:100F200052961C9280E88BB9F09224010F90DF91C9
:100F3000CF91FF91EF91BF91AF919F918F917F9151
:100F40006F915F914F913F912F911F910F91FF9062
:100F50000F900FBE0F901F9018958A97F8019687F3
:100F60008587AFCF0384F485E02DE859FF4FE491E6
:100F70008BB1E07F8F70E82BEBB990E8F92EA8CF0A
:100F80000B9694878387AECFF80187859089019669
:100F9000883091051CF4908B8787C6CF50961C92A1
:100FA0001E921F9758968D919C915997892B59F4B1
:100FB000198256968D919C9157978130910589F1B0
:100FC0008CF4892BF1F0F801878D882309F460C037
:100FD000178ED80151968C91519791E0892751969F
:100FE0008C93A2CF8230910599F1039761F78EE738
:100FF00054968C9354975E961C925E9781E090E095
:101000003EC08EE7848B168E848D958D0197958FCB
:10101000848F18161906BCF281E090E0978B868BBE
:10102000D2CF11968D919C910E949703882339F01D
:101030008EE7F801848B168E82E090E0EFCFD80126
:1010400057961C921E92569781E052968C936CCFC5
:10105000AE014F5F5F4FB8016C5E7F4F818192811F
:101060000E940004882381F081E0D8015E968C9371
:101070005E978981882309F4A6CF83E090E0579694
:101080009C938E9356979FCF83E090E0F801C6CF54
:1010900095898489892311F120A131A12F5F3F4FC8
:1010A00025303105B4F431A320A3F801208D318D12
:1010B0002F5F3F4F318F208F990F958B283031054F
:1010C00024F0118E108E91E0958B882309F481CF46
:1010D0002BCF11A210A2268D278FE7CF11A210A22D
:1010E000E4CF80E8F82E20CF5F926F927F928F92AC
:1010F0009F92AF92BF92CF92DF92EF92FF920F93A7
:101100001F93CF93DF93109231011092300188EE3C
:1011100093E0A0E0B0E08093320190933301A0937C
:101120003401B093350186E191E090932F018093D3
:101130002E0185EC90E090933B0180933A0184EC82
:1011400090E090933D0180933C0180EC90E090937F
:101150003F0180933E0181EC90E0909341018093A8
:10116000400182EC90E0909343018093420186EC31
:1011700090E09093450180934401109247011092B2
:1011800048011092490110924A011092D401109224
:10119000D30180E88093D501552453945092D70110
:1011A0005092D80180E895E29093D2018093D101CA
:1011B0008CE190E00E94210EEC011D861C861F86AA
:1011C0001E86198A188A8FE38A8B84E690E09C8BAE
:1011D0008B8B1D8A1F8A1E8A188E198E1A8E1B8E63
:1011E00081E090E00E94210E5C019983888385E173
:1011F00090E00E94210E7C01DC0116961C921E924A
:101200001597CC24C394D12C1896DC92CE921797C4
:1012100092E0892E912C1A969C928E9219971C9688
:101220001C921E921B971E961C921E921D97509602
:10123000DC92CE921F9752961C921E925197549612
:101240001C921E92539714961C928EE090E00E947E
:10125000210EFC0166246A94762C738262821586C4
:101260001486B182A082D7018D939C938AEF91E07E
:101270000E94210EF70193838283DC011C92119658
:101280001C92FB82EA8285E190E00E94210E8C0193
:10129000FC0116821582D086C782928681861486CA
:1012A000138616861586D08AC786128A118A148AF2
:1012B000138A54828EE090E00E94210EFC0173821A
:1012C000628215861486B182A082D8018D939C9388
:1012D0008AEF91E00E94210EF80193838283DC0162
:1012E0001C9211961C921D830C8381E390E00E9456
:1012F000210EFC0110821482138216821582108640
:10130000178212A211A284E090E094A383A315A2F5
:1013100017A216A210A611A612A614A613A616A608
:1013200015A610AA17A6F282E182FF83EE8382E25D
:1013300090E00E94210E7C01FC01108288E0EAE02E
:10134000F1E0D701139601900D928A95E1F7D7014C
:101350001C961C921E921B971E961C921E921D9705
:1013600050961C921E921F9751965C9251975296DE
:101370001C92529753965C9253978EE754968C9397
:10138000549755965C92559757961C921E92569775
:1013900059961C921E9258978BE490E05B969C9312
:1013A0008E935A975D969C938E935C975E961C9253
:1013B0005E975F961C925F9791961C921E929097F3
:1013C00012961C930E93119787010D5F1F4F6701B3
:1013D000BBE0CB0ED11CF80180810E5F1F4F0E9435
:1013E0009F01C016D106B9F7F986E88681E090E042
:1013F0000E94210E2E813F813093CE012093CD019A
:10140000F092CC01E092CB0110927A0010927B0016
:1014100020917C0020937C0020917C00206420930C
:101420007C0020917C00206220937C0020917A0037
:10143000276020937A0020917A00206220937A001E
:1014400020917A00286020937A0020917A00206809
:1014500020937A0020917A00206420937A009B8761
:101460008A878AE00E949F018AE090E09D878C87AE
:1014700089E00E949F0189E090E09F878E8783E04A
:101480000E949F0183E090E0998B888BD093D001DC
:10149000C093CF01DF91CF911F910F91FF90EF90FB
:1014A000DF90CF90BF90AF909F908F907F906F9084
:1014B0005F900895CF93DF9300D0CDB7DEB77894D7
:1014C00084B5826084BD84B5816084BD85B5826049
:1014D00085BD85B5816085BD80916E0081608093FA
:1014E0006E00109281008091810082608093810063
:1014F0008091810081608093810080918000816073
:10150000809380008091B10084608093B1008091CD
:10151000B00081608093B00080917A0084608093F5
:101520007A0080917A00826080937A0080917A00BC
:10153000816080937A0080917A00806880937A003D
:101540001092C100C090D101D090D2010D2C000C9E
:10155000EE08FF0860E079E08DE390E0A7019601D6
:101560000E94C20D215031094109510956954795F4
:1015700037952795E0913E01F0913F0182E080830D
:10158000211580E13807A8F0E0913E01F0913F017C
:10159000108260E874E88EE190E0A70196010E9455
:1015A000C20D21503109410951095695479537958A
:1015B0002795E0913A01F0913B013083E0913C01A5
:1015C000F0913D01208310924601E0914201F0919B
:1015D000430186E08083E0914001F09141018081E8
:1015E00080618083E0914001F091410180818860B9
:1015F0008083E0914001F091410180818068808387
:10160000E0914001F091410180818F7D8083412CE8
:10161000512C3201539433E0E32EF12C22242394F5
:10162000312C80E8D82E9AE0C92E0091CF0110917C
:10163000D001D8011C968C911C971696ED91FC91C7
:10164000908161E0911101C060E00E94D002F80138
:10165000868997898130910509F4AFC00CF05CC090
:10166000892B09F478C08EE291E00E941C021816C2
:1016700019068CF48EE291E00E94FA012091D301C8
:101680003091D4012130310509F410C10CF0EAC0C9
:10169000232B09F4FFC0E091CF01F091D001AE01FE
:1016A0004E5F5F4FBE016F5F7F4F828193810E94CB
:1016B0000004882321F10A8119818091D7018823B0
:1016C00051F080EC90E00E94AB0290E080E00E943C
:1016D000AB021092D701103C09F06FC18BED90E086
:1016E0000E94AB028CED90E00E94AB02002339F027
:1016F00080EC90E00E94AB0281E08093D701A0E0F3
:10170000B0E0AB2B09F491CF0E942802882309F4A2
:1017100088CF0E94000085CF8230910509F484C0F3
:10172000039709F0A0CFD8010084F185E02D8389CB
:10173000882309F498CF60E050968C910E94D002E3
:1017400060E0F80186850E94D002D80157961C926D
:101750001E92569788CF848195810E949703882393
:1017600009F481CFF8018589882369F0C8010E94B6
:101770001C03D80118968D919C910E94F604F801E3
:10178000F78AE68A70CFD8010680F781E02D808144
:10179000882329F057963C922E92569764CFC80121
:1017A0000E941C03F801808591850E94F604D801EF
:1017B0005796FC92EE92569756CF0680F781E02D11
:1017C0008081811150CF0E94380DF8018288912CC0
:1017D000B12CA12CA30192010E94900D86169706B0
:1017E000A806B9061CF68FB7F89440912A015091CB
:1017F0002B0160912C0170912D018FBFD801539660
:101800008D919C91092E000CAA0BBB0B840F951F88
:10181000A61FB71FF801808F918FA28FB38F82E030
:1018200090E0978B868B1FCFD8010680F781E02D43
:1018300080818111AFCF2FB7F89480912A019091C8
:101840002B01A0912C01B0912D012FBFF801408DEB
:10185000518D628D738D481759076A077B0708F011
:1018600002CF84CFE091CF01F091D0012230310539
:1018700071F12330310509F00ECF8C3D09F082C0A3
:101880008091D50160EC882309F483C0F0ECF093DB
:10189000D60116C0803C09F0FECED092D501E1E021
:1018A000F0E0F093D401E093D301F5CE803C09F44D
:1018B000F2CE99EF980F973F08F478C08093D50146
:1018C00082E090E09093D4018093D301E4CE8B3DED
:1018D00039F4A3E0B0E0B093D401A093D301DBCE00
:1018E0009091D501803C09F042C0923049F1A0F4BA
:1018F000992309F1913089F60084F185E02D8091DA
:10190000D601B8E78B9FC001112460E570E00E940A
:10191000F30D738F628FC1CF9530B1F09E3FE1F030
:10192000933009F0BACF8091D6018C9DC00111246B
:10193000948B838BB2CF848195810E94B404ADCF08
:101940008091D601828BA9CF81E09091D60191112F
:1019500001C080E0858BA1CF0084F185E02D81E07E
:101960009091D601911101C080E0808396CF9111B2
:1019700006C0682F848195810E944E048CCE80938E
:10198000D60189CE8D3D71F48091D501811106C0BB
:101990006BED848195810E944E0492CF9BED9093D4
:1019A000D6018ECF848195810E947A03D092D50191
:1019B0001092D4011092D3016ECE1B3D39F48BED01
:1019C00090E00E94AB028DED90E08ECE612F8EE212
:1019D00091E00E945E028ACE8F929F92AF92BF9258
:1019E000CF92DF92EF92FF92CF93DF93EC01688169
:1019F00079818A819B81611571058105910521F4A9
:101A000064E279ED8BE597E02DE133EF41E050E0C2
:101A10000E94900D49015A019B01AC01A7EAB1E473
:101A20000E94AF0D6B017C01ACEEB4EFA5019401F7
:101A30000E94BD0DC60ED71EE81EF91EF7FE06C099
:101A400081E0C81AD108E10880E8F80AC882D98282
:101A5000EA82FB82C701B6019F77DF91CF91FF90A9
:101A6000EF90DF90CF90BF90AF909F908F900895B0
:101A70008F929F92AF92BF92CF92DF92EF92FF929E
:101A80006091000170910101809102019091030128
:101A9000611571058105910521F464E279ED8BE50D
:101AA00097E02DE133EF41E050E00E94900D4901B5
:101AB0005A019B01AC01A7EAB1E40E94AF0D6B0192
:101AC0007C01ACEEB4EFA50194010E94BD0DC60EE1
:101AD000D71EE81EF91EF7FE06C081E0C81AD1081D
:101AE000E10880E8F80AC0920001D0920101E0927A
:101AF0000201F0920301C701B6019F77FF90EF90BA
:101B0000DF90CF90BF90AF909F908F90089560939B
:101B100000017093010180930201909303010895E5
:101B2000052E97FB1EF400940E94A70D57FD07D0C9
:101B30000E94C20D07FC03D04EF40C94A70D5095E3
:101B40004095309521953F4F4F4F5F4F08959095A9
:101B50008095709561957F4F8F4F9F4F08950E949C
:101B6000E40DA59F900DB49F900DA49F800D911D35
:101B700011240895B7FF0C94AF0D0E94AF0D821B86
:101B8000930B0895A1E21A2EAA1BBB1BFD010DC0E9
:101B9000AA1FBB1FEE1FFF1FA217B307E407F5071D
:101BA00020F0A21BB30BE40BF50B661F771F881FF9
:101BB000991F1A9469F760957095809590959B018F
:101BC000AC01BD01CF010895A29FB001B39FC00138
:101BD000A39F700D811D1124911DB29F700D811D59
:101BE0001124911D089597FB072E16F4009407D039
:101BF00077FD09D00E94070E07FC05D03EF49095B2
:101C000081959F4F0895709561957F4F0895AA1B08
:101C1000BB1B51E107C0AA1FBB1FA617B70710F0D7
:101C2000A61BB70B881F991F5A95A9F78095909509
:101C3000BC01CD010895EE0FFF1F0590F491E02D3A
:101C400009940F931F93CF93DF938230910510F483
:101C500082E090E0E091DB01F091DC0130E020E0F7
:101C6000B0E0A0E0309799F42115310509F44AC09D
:101C7000281B390B24303105D8F58A819B816115E9
:101C8000710589F1FB0193838283FE0111C04081BC
:101C900051810281138148175907E0F0481759070D
:101CA00099F4109761F012960C93129713961C9367
:101CB0003296CF01DF91CF911F910F91089500933C
:101CC000DB011093DC01F4CF2115310551F04217EF
:101CD000530738F0A901DB019A01BD01DF01F801CA
:101CE000C1CFEF01F9CF9093DC018093DB01CDCF21
:101CF000FE01E20FF31F8193919322503109398342
:101D00002883D7CF2091D9013091DA01232B41F4D8
:101D100020910601309107013093DA012093D90117
:101D200020910401309105012115310541F42DB7B1
:101D30003EB74091080150910901241B350BE091F9
:101D4000D901F091DA01E217F307A0F42E1B3F0B43
:101D50002817390778F0AC014E5F5F4F241735071D
:101D600048F04E0F5F1F5093DA014093D9018193E1
:101D700091939FCFF0E0E0E09CCFCF93DF9300976B
:101D8000E9F0FC01329713821282A091DB01B0913D
:101D9000DC01ED0130E020E01097A1F420813181D9
:101DA000820F931F2091D9013091DA01281739074A
:101DB00009F061C0F093DA01E093D901DF91CF918E
:101DC0000895EA01CE17DF07E8F54A815B819E019D
:101DD00041155105B1F7E901FB83EA834991599116
:101DE000C40FD51FEC17FD0761F480819181029625
:101DF000840F951FE90199838883828193819B8356
:101E00008A83F0E0E0E012968D919C911397009701
:101E1000B9F52D913C911197CD010296820F931F38
:101E20002091D9013091DA012817390739F6309716
:101E300051F51092DC011092DB01B093DA01A0930E
:101E4000D901BCCFD383C28340815181840F951FB8
:101E5000C817D90761F44E5F5F4F88819981480F99
:101E6000591F518340838A819B81938382832115EB
:101E7000310509F0B0CFF093DC01E093DB019ECF98
:101E8000FD01DC01C0CF13821282D7CFF894FFCFBF
:101E9000010000000000DD018000070006000500D1
:101EA0000400000000005E02BE01EB01B0021C0253
:041EB000FA010E0223
:00000001FF
